{
  "contractName": "KittyItemToken",
  "abi": [
    {
      "constant": true,
      "inputs": [],
      "name": "name",
      "outputs": [
        {
          "name": "",
          "type": "string"
        }
      ],
      "payable": false,
      "stateMutability": "view",
      "type": "function"
    },
    {
      "constant": false,
      "inputs": [
        {
          "name": "_ipfsHash",
          "type": "string"
        }
      ],
      "name": "updateIpfsHash",
      "outputs": [],
      "payable": false,
      "stateMutability": "nonpayable",
      "type": "function"
    },
    {
      "constant": false,
      "inputs": [
        {
          "name": "_spender",
          "type": "address"
        },
        {
          "name": "_value",
          "type": "uint256"
        }
      ],
      "name": "approve",
      "outputs": [
        {
          "name": "success",
          "type": "bool"
        }
      ],
      "payable": false,
      "stateMutability": "nonpayable",
      "type": "function"
    },
    {
      "constant": true,
      "inputs": [],
      "name": "totalSupply",
      "outputs": [
        {
          "name": "",
          "type": "uint256"
        }
      ],
      "payable": false,
      "stateMutability": "view",
      "type": "function"
    },
    {
      "constant": false,
      "inputs": [
        {
          "name": "_canApply",
          "type": "address"
        }
      ],
      "name": "setCanApplyAddress",
      "outputs": [],
      "payable": false,
      "stateMutability": "nonpayable",
      "type": "function"
    },
    {
      "constant": false,
      "inputs": [
        {
          "name": "_from",
          "type": "address"
        },
        {
          "name": "_to",
          "type": "address"
        },
        {
          "name": "_value",
          "type": "uint256"
        }
      ],
      "name": "transferFrom",
      "outputs": [
        {
          "name": "success",
          "type": "bool"
        }
      ],
      "payable": false,
      "stateMutability": "nonpayable",
      "type": "function"
    },
    {
      "constant": true,
      "inputs": [],
      "name": "canApply",
      "outputs": [
        {
          "name": "",
          "type": "address"
        }
      ],
      "payable": false,
      "stateMutability": "view",
      "type": "function"
    },
    {
      "constant": true,
      "inputs": [],
      "name": "decimals",
      "outputs": [
        {
          "name": "",
          "type": "uint8"
        }
      ],
      "payable": false,
      "stateMutability": "view",
      "type": "function"
    },
    {
      "constant": false,
      "inputs": [
        {
          "name": "_totalSupply",
          "type": "uint256"
        },
        {
          "name": "_symbol",
          "type": "string"
        },
        {
          "name": "_name",
          "type": "string"
        }
      ],
      "name": "setupToken",
      "outputs": [],
      "payable": false,
      "stateMutability": "nonpayable",
      "type": "function"
    },
    {
      "constant": true,
      "inputs": [
        {
          "name": "_kittyId",
          "type": "uint256"
        }
      ],
      "name": "applied",
      "outputs": [
        {
          "name": "",
          "type": "bool"
        }
      ],
      "payable": false,
      "stateMutability": "view",
      "type": "function"
    },
    {
      "constant": true,
      "inputs": [
        {
          "name": "_owner",
          "type": "address"
        }
      ],
      "name": "balanceOf",
      "outputs": [
        {
          "name": "",
          "type": "uint256"
        }
      ],
      "payable": false,
      "stateMutability": "view",
      "type": "function"
    },
    {
      "constant": false,
      "inputs": [
        {
          "name": "_kittyId",
          "type": "uint256"
        }
      ],
      "name": "removeItem",
      "outputs": [],
      "payable": false,
      "stateMutability": "nonpayable",
      "type": "function"
    },
    {
      "constant": false,
      "inputs": [
        {
          "name": "_addr",
          "type": "address"
        }
      ],
      "name": "setKittyCoreAddress",
      "outputs": [],
      "payable": false,
      "stateMutability": "nonpayable",
      "type": "function"
    },
    {
      "constant": true,
      "inputs": [],
      "name": "owner",
      "outputs": [
        {
          "name": "",
          "type": "address"
        }
      ],
      "payable": false,
      "stateMutability": "view",
      "type": "function"
    },
    {
      "constant": true,
      "inputs": [],
      "name": "symbol",
      "outputs": [
        {
          "name": "",
          "type": "string"
        }
      ],
      "payable": false,
      "stateMutability": "view",
      "type": "function"
    },
    {
      "constant": false,
      "inputs": [
        {
          "name": "_to",
          "type": "address"
        },
        {
          "name": "_value",
          "type": "uint256"
        }
      ],
      "name": "transfer",
      "outputs": [
        {
          "name": "success",
          "type": "bool"
        }
      ],
      "payable": false,
      "stateMutability": "nonpayable",
      "type": "function"
    },
    {
      "constant": true,
      "inputs": [],
      "name": "ipfsHash",
      "outputs": [
        {
          "name": "",
          "type": "string"
        }
      ],
      "payable": false,
      "stateMutability": "view",
      "type": "function"
    },
    {
      "constant": true,
      "inputs": [
        {
          "name": "_owner",
          "type": "address"
        },
        {
          "name": "_spender",
          "type": "address"
        }
      ],
      "name": "allowance",
      "outputs": [
        {
          "name": "",
          "type": "uint256"
        }
      ],
      "payable": false,
      "stateMutability": "view",
      "type": "function"
    },
    {
      "constant": false,
      "inputs": [
        {
          "name": "_receiveAddress",
          "type": "address"
        },
        {
          "name": "_kittyId",
          "type": "uint256"
        }
      ],
      "name": "transferAndApply",
      "outputs": [],
      "payable": false,
      "stateMutability": "nonpayable",
      "type": "function"
    },
    {
      "constant": false,
      "inputs": [
        {
          "name": "newOwner",
          "type": "address"
        }
      ],
      "name": "transferOwnership",
      "outputs": [],
      "payable": false,
      "stateMutability": "nonpayable",
      "type": "function"
    },
    {
      "constant": false,
      "inputs": [
        {
          "name": "_kittyId",
          "type": "uint256"
        }
      ],
      "name": "applyItem",
      "outputs": [],
      "payable": false,
      "stateMutability": "nonpayable",
      "type": "function"
    },
    {
      "inputs": [],
      "payable": false,
      "stateMutability": "nonpayable",
      "type": "constructor"
    },
    {
      "anonymous": false,
      "inputs": [
        {
          "indexed": false,
          "name": "kittyId",
          "type": "uint256"
        }
      ],
      "name": "Apply",
      "type": "event"
    },
    {
      "anonymous": false,
      "inputs": [
        {
          "indexed": false,
          "name": "kittyId",
          "type": "uint256"
        }
      ],
      "name": "Remove",
      "type": "event"
    },
    {
      "anonymous": false,
      "inputs": [
        {
          "indexed": true,
          "name": "_from",
          "type": "address"
        },
        {
          "indexed": true,
          "name": "_to",
          "type": "address"
        },
        {
          "indexed": false,
          "name": "_value",
          "type": "uint256"
        }
      ],
      "name": "Transfer",
      "type": "event"
    },
    {
      "anonymous": false,
      "inputs": [
        {
          "indexed": true,
          "name": "_owner",
          "type": "address"
        },
        {
          "indexed": true,
          "name": "_spender",
          "type": "address"
        },
        {
          "indexed": false,
          "name": "_value",
          "type": "uint256"
        }
      ],
      "name": "Approval",
      "type": "event"
    }
  ],
  "bytecode": "0x60606040526000805560206040519081016040528060008152506001908051906020019062000030929190620000d6565b5060206040519081016040528060008152506002908051906020019062000059929190620000d6565b5060206040519081016040528060008152506003908051906020019062000082929190620000d6565b5034156200008f57600080fd5b33600460006101000a81548173ffffffffffffffffffffffffffffffffffffffff021916908373ffffffffffffffffffffffffffffffffffffffff16021790555062000185565b828054600181600116156101000203166002900490600052602060002090601f016020900481019282601f106200011957805160ff19168380011785556200014a565b828001600101855582156200014a579182015b82811115620001495782518255916020019190600101906200012c565b5b5090506200015991906200015d565b5090565b6200018291905b808211156200017e57600081600090555060010162000164565b5090565b90565b611d2d80620001956000396000f30060606040526004361061011d576000357c0100000000000000000000000000000000000000000000000000000000900463ffffffff16806306fdde03146101225780630913348f146101b0578063095ea7b31461020d57806318160ddd14610267578063223095ff1461029057806323b872dd146102c95780632a05bbcb14610342578063313ce5671461039757806332c12ca7146103c6578063344456c81461046f57806370a08231146104aa57806371329171146104f757806378a7b8041461051a5780638da5cb5b1461055357806395d89b41146105a8578063a9059cbb14610636578063c623674f14610690578063dd62ed3e1461071e578063e9121b121461078a578063f2fde38b146107cc578063fdbf198914610805575b600080fd5b341561012d57600080fd5b610135610828565b6040518080602001828103825283818151815260200191508051906020019080838360005b8381101561017557808201518184015260208101905061015a565b50505050905090810190601f1680156101a25780820380516001836020036101000a031916815260200191505b509250505060405180910390f35b34156101bb57600080fd5b61020b600480803590602001908201803590602001908080601f016020809104026020016040519081016040528093929190818152602001838380828437820191505050505050919050506108c6565b005b341561021857600080fd5b61024d600480803573ffffffffffffffffffffffffffffffffffffffff1690602001909190803590602001909190505061093c565b604051808215151515815260200191505060405180910390f35b341561027257600080fd5b61027a610a2e565b6040518082815260200191505060405180910390f35b341561029b57600080fd5b6102c7600480803573ffffffffffffffffffffffffffffffffffffffff16906020019091905050610a34565b005b34156102d457600080fd5b610328600480803573ffffffffffffffffffffffffffffffffffffffff1690602001909190803573ffffffffffffffffffffffffffffffffffffffff16906020019091908035906020019091905050610ad4565b604051808215151515815260200191505060405180910390f35b341561034d57600080fd5b610355610d6e565b604051808273ffffffffffffffffffffffffffffffffffffffff1673ffffffffffffffffffffffffffffffffffffffff16815260200191505060405180910390f35b34156103a257600080fd5b6103aa610d94565b604051808260ff1660ff16815260200191505060405180910390f35b34156103d157600080fd5b61046d600480803590602001909190803590602001908201803590602001908080601f0160208091040260200160405190810160405280939291908181526020018383808284378201915050505050509190803590602001908201803590602001908080601f01602080910402602001604051908101604052809392919081815260200183838082843782019150505050505091905050610d99565b005b341561047a57600080fd5b61049060048080359060200190919050506110e4565b604051808215151515815260200191505060405180910390f35b34156104b557600080fd5b6104e1600480803573ffffffffffffffffffffffffffffffffffffffff1690602001909190505061110e565b6040518082815260200191505060405180910390f35b341561050257600080fd5b6105186004808035906020019091905050611157565b005b341561052557600080fd5b610551600480803573ffffffffffffffffffffffffffffffffffffffff169060200190919050506112aa565b005b341561055e57600080fd5b61056661134a565b604051808273ffffffffffffffffffffffffffffffffffffffff1673ffffffffffffffffffffffffffffffffffffffff16815260200191505060405180910390f35b34156105b357600080fd5b6105bb611370565b6040518080602001828103825283818151815260200191508051906020019080838360005b838110156105fb5780820151818401526020810190506105e0565b50505050905090810190601f1680156106285780820380516001836020036101000a031916815260200191505b509250505060405180910390f35b341561064157600080fd5b610676600480803573ffffffffffffffffffffffffffffffffffffffff1690602001909190803590602001909190505061140e565b604051808215151515815260200191505060405180910390f35b341561069b57600080fd5b6106a3611567565b6040518080602001828103825283818151815260200191508051906020019080838360005b838110156106e35780820151818401526020810190506106c8565b50505050905090810190601f1680156107105780820380516001836020036101000a031916815260200191505b509250505060405180910390f35b341561072957600080fd5b610774600480803573ffffffffffffffffffffffffffffffffffffffff1690602001909190803573ffffffffffffffffffffffffffffffffffffffff16906020019091905050611605565b6040518082815260200191505060405180910390f35b341561079557600080fd5b6107ca600480803573ffffffffffffffffffffffffffffffffffffffff1690602001909190803590602001909190505061168c565b005b34156107d757600080fd5b610803600480803573ffffffffffffffffffffffffffffffffffffffff16906020019091905050611963565b005b341561081057600080fd5b6108266004808035906020019091905050611a3a565b005b60028054600181600116156101000203166002900480601f0160208091040260200160405190810160405280929190818152602001828054600181600116156101000203166002900480156108be5780601f10610893576101008083540402835291602001916108be565b820191906000526020600020905b8154815290600101906020018083116108a157829003601f168201915b505050505081565b600460009054906101000a900473ffffffffffffffffffffffffffffffffffffffff1673ffffffffffffffffffffffffffffffffffffffff163373ffffffffffffffffffffffffffffffffffffffff1614151561092257600080fd5b8060039080519060200190610938929190611c5c565b5050565b600081600760003373ffffffffffffffffffffffffffffffffffffffff1673ffffffffffffffffffffffffffffffffffffffff16815260200190815260200160002060008573ffffffffffffffffffffffffffffffffffffffff1673ffffffffffffffffffffffffffffffffffffffff168152602001908152602001600020819055508273ffffffffffffffffffffffffffffffffffffffff163373ffffffffffffffffffffffffffffffffffffffff167f8c5be1e5ebec7d5bd14f71427d1e84f3dd0314c0f7b2291e5b200ac8c7c3b925846040518082815260200191505060405180910390a36001905092915050565b60005481565b600460009054906101000a900473ffffffffffffffffffffffffffffffffffffffff1673ffffffffffffffffffffffffffffffffffffffff163373ffffffffffffffffffffffffffffffffffffffff16141515610a9057600080fd5b80600560006101000a81548173ffffffffffffffffffffffffffffffffffffffff021916908373ffffffffffffffffffffffffffffffffffffffff16021790555050565b600080600760008673ffffffffffffffffffffffffffffffffffffffff1673ffffffffffffffffffffffffffffffffffffffff16815260200190815260200160002060003373ffffffffffffffffffffffffffffffffffffffff1673ffffffffffffffffffffffffffffffffffffffff16815260200190815260200160002054905082600660008773ffffffffffffffffffffffffffffffffffffffff1673ffffffffffffffffffffffffffffffffffffffff1681526020019081526020016000205410158015610ba55750828110155b1515610bb057600080fd5b82600660008673ffffffffffffffffffffffffffffffffffffffff1673ffffffffffffffffffffffffffffffffffffffff1681526020019081526020016000206000828254019250508190555082600660008773ffffffffffffffffffffffffffffffffffffffff1673ffffffffffffffffffffffffffffffffffffffff168152602001908152602001600020600082825403925050819055507fffffffffffffffffffffffffffffffffffffffffffffffffffffffffffffffff811015610cfd5782600760008773ffffffffffffffffffffffffffffffffffffffff1673ffffffffffffffffffffffffffffffffffffffff16815260200190815260200160002060003373ffffffffffffffffffffffffffffffffffffffff1673ffffffffffffffffffffffffffffffffffffffff168152602001908152602001600020600082825403925050819055505b8373ffffffffffffffffffffffffffffffffffffffff168573ffffffffffffffffffffffffffffffffffffffff167fddf252ad1be2c89b69c2b068fc378daa952ba7f163c4a11628f55a4df523b3ef856040518082815260200191505060405180910390a360019150509392505050565b600560009054906101000a900473ffffffffffffffffffffffffffffffffffffffff1681565b600081565b600460009054906101000a900473ffffffffffffffffffffffffffffffffffffffff1673ffffffffffffffffffffffffffffffffffffffff163373ffffffffffffffffffffffffffffffffffffffff16141515610df557600080fd5b60008054141515610e0557600080fd5b60405180600001905060405180910390206000191660016040518082805460018160011615610100020316600290048015610e775780601f10610e55576101008083540402835291820191610e77565b820191906000526020600020905b815481529060010190602001808311610e63575b5050915050604051809103902060001916141515610e9457600080fd5b60405180600001905060405180910390206000191660026040518082805460018160011615610100020316600290048015610f065780601f10610ee4576101008083540402835291820191610f06565b820191906000526020600020905b815481529060010190602001808311610ef2575b5050915050604051809103902060001916141515610f2357600080fd5b600083111515610f3257600080fd5b604051806000019050604051809103902060001916826040518082805190602001908083835b602083101515610f7d5780518252602082019150602081019050602083039250610f58565b6001836020036101000a03801982511681845116808217855250505050505090500191505060405180910390206000191614151515610fbb57600080fd5b604051806000019050604051809103902060001916816040518082805190602001908083835b6020831015156110065780518252602082019150602081019050602083039250610fe1565b6001836020036101000a0380198251168184511680821785525050505050509050019150506040518091039020600019161415151561104457600080fd5b826000819055508160019080519060200190611061929190611c5c565b508060029080519060200190611078929190611c5c565b508260066000600460009054906101000a900473ffffffffffffffffffffffffffffffffffffffff1673ffffffffffffffffffffffffffffffffffffffff1673ffffffffffffffffffffffffffffffffffffffff16815260200190815260200160002081905550505050565b60006008600083815260200190815260200160002060009054906101000a900460ff169050919050565b6000600660008373ffffffffffffffffffffffffffffffffffffffff1673ffffffffffffffffffffffffffffffffffffffff168152602001908152602001600020549050919050565b600960009054906101000a900473ffffffffffffffffffffffffffffffffffffffff1673ffffffffffffffffffffffffffffffffffffffff16636352211e826000604051602001526040518263ffffffff167c010000000000000000000000000000000000000000000000000000000002815260040180828152602001915050602060405180830381600087803b15156111f057600080fd5b6102c65a03f1151561120157600080fd5b5050506040518051905073ffffffffffffffffffffffffffffffffffffffff163373ffffffffffffffffffffffffffffffffffffffff1614151561124457600080fd5b60006008600083815260200190815260200160002060006101000a81548160ff0219169083151502179055507f476e4aa4bb19dbdea8700b4db99d81ad2fefcf51924ba5d493b7be6393f82201816040518082815260200191505060405180910390a150565b600460009054906101000a900473ffffffffffffffffffffffffffffffffffffffff1673ffffffffffffffffffffffffffffffffffffffff163373ffffffffffffffffffffffffffffffffffffffff1614151561130657600080fd5b80600960006101000a81548173ffffffffffffffffffffffffffffffffffffffff021916908373ffffffffffffffffffffffffffffffffffffffff16021790555050565b600460009054906101000a900473ffffffffffffffffffffffffffffffffffffffff1681565b60018054600181600116156101000203166002900480601f0160208091040260200160405190810160405280929190818152602001828054600181600116156101000203166002900480156114065780601f106113db57610100808354040283529160200191611406565b820191906000526020600020905b8154815290600101906020018083116113e957829003601f168201915b505050505081565b600081600660003373ffffffffffffffffffffffffffffffffffffffff1673ffffffffffffffffffffffffffffffffffffffff168152602001908152602001600020541015151561145e57600080fd5b81600660003373ffffffffffffffffffffffffffffffffffffffff1673ffffffffffffffffffffffffffffffffffffffff1681526020019081526020016000206000828254039250508190555081600660008573ffffffffffffffffffffffffffffffffffffffff1673ffffffffffffffffffffffffffffffffffffffff168152602001908152602001600020600082825401925050819055508273ffffffffffffffffffffffffffffffffffffffff163373ffffffffffffffffffffffffffffffffffffffff167fddf252ad1be2c89b69c2b068fc378daa952ba7f163c4a11628f55a4df523b3ef846040518082815260200191505060405180910390a36001905092915050565b60038054600181600116156101000203166002900480601f0160208091040260200160405190810160405280929190818152602001828054600181600116156101000203166002900480156115fd5780601f106115d2576101008083540402835291602001916115fd565b820191906000526020600020905b8154815290600101906020018083116115e057829003601f168201915b505050505081565b6000600760008473ffffffffffffffffffffffffffffffffffffffff1673ffffffffffffffffffffffffffffffffffffffff16815260200190815260200160002060008373ffffffffffffffffffffffffffffffffffffffff1673ffffffffffffffffffffffffffffffffffffffff16815260200190815260200160002054905092915050565b600560009054906101000a900473ffffffffffffffffffffffffffffffffffffffff1673ffffffffffffffffffffffffffffffffffffffff163373ffffffffffffffffffffffffffffffffffffffff1614806117355750600460009054906101000a900473ffffffffffffffffffffffffffffffffffffffff1673ffffffffffffffffffffffffffffffffffffffff163373ffffffffffffffffffffffffffffffffffffffff16145b151561174057600080fd5b6000600660003373ffffffffffffffffffffffffffffffffffffffff1673ffffffffffffffffffffffffffffffffffffffff1681526020019081526020016000205411151561178e57600080fd5b600960009054906101000a900473ffffffffffffffffffffffffffffffffffffffff1673ffffffffffffffffffffffffffffffffffffffff16636352211e826000604051602001526040518263ffffffff167c010000000000000000000000000000000000000000000000000000000002815260040180828152602001915050602060405180830381600087803b151561182757600080fd5b6102c65a03f1151561183857600080fd5b5050506040518051905073ffffffffffffffffffffffffffffffffffffffff168273ffffffffffffffffffffffffffffffffffffffff1614151561187b57600080fd5b600015156008600083815260200190815260200160002060009054906101000a900460ff1615151415156118ae57600080fd5b60016008600083815260200190815260200160002060006101000a81548160ff0219169083151502179055506001600660003373ffffffffffffffffffffffffffffffffffffffff1673ffffffffffffffffffffffffffffffffffffffff168152602001908152602001600020600082825403925050819055507f2fc96119a3d9277e338f2f7b673fd2a522fd9f9d6c58ddc6c661d4bd41e7d995816040518082815260200191505060405180910390a15050565b600460009054906101000a900473ffffffffffffffffffffffffffffffffffffffff1673ffffffffffffffffffffffffffffffffffffffff163373ffffffffffffffffffffffffffffffffffffffff161415156119bf57600080fd5b600073ffffffffffffffffffffffffffffffffffffffff168173ffffffffffffffffffffffffffffffffffffffff16141515611a375780600460006101000a81548173ffffffffffffffffffffffffffffffffffffffff021916908373ffffffffffffffffffffffffffffffffffffffff1602179055505b50565b6000600660003373ffffffffffffffffffffffffffffffffffffffff1673ffffffffffffffffffffffffffffffffffffffff16815260200190815260200160002054111515611a8857600080fd5b600960009054906101000a900473ffffffffffffffffffffffffffffffffffffffff1673ffffffffffffffffffffffffffffffffffffffff16636352211e826000604051602001526040518263ffffffff167c010000000000000000000000000000000000000000000000000000000002815260040180828152602001915050602060405180830381600087803b1515611b2157600080fd5b6102c65a03f11515611b3257600080fd5b5050506040518051905073ffffffffffffffffffffffffffffffffffffffff163373ffffffffffffffffffffffffffffffffffffffff16141515611b7557600080fd5b600015156008600083815260200190815260200160002060009054906101000a900460ff161515141515611ba857600080fd5b60016008600083815260200190815260200160002060006101000a81548160ff0219169083151502179055506001600660003373ffffffffffffffffffffffffffffffffffffffff1673ffffffffffffffffffffffffffffffffffffffff168152602001908152602001600020600082825403925050819055507f2fc96119a3d9277e338f2f7b673fd2a522fd9f9d6c58ddc6c661d4bd41e7d995816040518082815260200191505060405180910390a150565b828054600181600116156101000203166002900490600052602060002090601f016020900481019282601f10611c9d57805160ff1916838001178555611ccb565b82800160010185558215611ccb579182015b82811115611cca578251825591602001919060010190611caf565b5b509050611cd89190611cdc565b5090565b611cfe91905b80821115611cfa576000816000905550600101611ce2565b5090565b905600a165627a7a72305820159d10db35d054fe3435ff65d984afb8bf689e8057bb84307e5399fbf46bd0080029",
  "source": "/*\nYou should inherit from StandardToken or, for a token like you would want to\ndeploy in something like Mist, see HumanStandardToken.sol.\n(This implements ONLY the standard functions and NOTHING else.\nIf you deploy this, you won't have anything useful.)\n\nImplements ERC 20 Token standard: https://github.com/ethereum/EIPs/issues/20\n.*/\npragma solidity ^0.4.8;\n\nimport \"./Token.sol\";\n\n\n/**\n * @title KittyCore contract interface\n * https://ethereum.stackexchange.com/a/24721/25445\n * https://etherscan.io/address/0x06012c8cf97bead5deae237070f9587f8e7a266d#code\n */\ncontract KittyCore {\n  function ownerOf(uint256 _tokenId) external view returns (address owner);\n}\n\n\n/**\n * @title KittyItemToken is an ERC20 token with some extra functions for applying items to kitties\n */\ncontract KittyItemToken is Token {\n  uint256 constant MAX_UINT256 = 2**256 - 1;\n  string public symbol = \"\";\n  string public name = \"\";\n  string public ipfsHash = \"\";\n  uint8 public constant decimals = 0;\n  address public owner;\n  address public canApply;\n  mapping (address => uint256) balances;\n  mapping (address => mapping (address => uint256)) allowed;\n  mapping (uint256 => bool) appliedToKittyMapping;\n  KittyCore _kittyCore;\n\n  // Events\n  event Apply(uint256 kittyId);\n  event Remove(uint256 kittyId);\n\n  /**\n   * @dev KittyItemToken constructor\n   */\n  function KittyItemToken() public {\n    owner = msg.sender;\n  }\n\n  /** \n   * @dev Allows the current owner to transfer control of the contract to a newOwner.\n   * @param newOwner The address to transfer ownership to. \n   */  \n  function transferOwnership(address newOwner) public {\n    require(msg.sender == owner);\n    if (newOwner != address(0)) {\n      owner = newOwner;\n    }   \n  }\n\n  /**\n   * @dev sets the KittyCore contract address - https://ethereum.stackexchange.com/a/24721/25445\n   * @param _addr KittyCore contract address\n   */\n  function setKittyCoreAddress(address _addr) public {\n    require(msg.sender == owner);\n    _kittyCore = KittyCore(_addr);\n  }\n\n  /**\n   * @dev Sets the address other than the token holder that is allowed to apply items to kitties.\n   *      This is always the KittyItemMarket address\n   * @param _canApply address that can apply items to any Kitty, regardless of ownership\n   */\n  function setCanApplyAddress(address _canApply) public {\n    require(msg.sender == owner);\n    canApply = _canApply;\n  }\n\n  /**\n   * @dev Sets up the token total supply, symbol, name. This is normally done through the constructor but\n   *      an old version of Truffle didn't have the ability to do this. Dev made a bad assumption that Truffle 4.0 still\n   *      lacked this feature. Ran out of time to fix.\n   * @param _totalSupply Total supply of the token\n   * @param _symbol Symbol of the token\n   * @param _name Name of the token\n   */\n  function setupToken(uint256 _totalSupply, string _symbol, string _name) public {\n    // only the owner can modify the contract attributes\n    require(msg.sender == owner);\n\n    // make sure the contract hasn't already been modified\n    // https://ethereum.stackexchange.com/a/11754/25445\n    require(totalSupply == 0);\n    require(keccak256(symbol) == keccak256(\"\"));\n    require(keccak256(name) == keccak256(\"\"));\n\n    // make sure the contract hasn't already been modified\n    require(_totalSupply > 0);\n    require(keccak256(_symbol) != keccak256(\"\"));\n    require(keccak256(_name) != keccak256(\"\"));\n\n    totalSupply = _totalSupply;\n    symbol = _symbol;\n    name = _name;\n    balances[owner] = _totalSupply;\n  }\n\n  /**\n   * @dev Updates the IPFS hash for the token art\n   * @param _ipfsHash IPFS Hash for the token art\n   */\n  function updateIpfsHash(string _ipfsHash) public {\n    require(msg.sender == owner);\n    ipfsHash = _ipfsHash;\n  }\n\n  /**\n   * @dev Basic ERC20 transfer\n   */\n  function transfer(address _to, uint256 _value) public returns (bool success) {\n    //Default assumes totalSupply can't be over max (2^256 - 1).\n    //If your token leaves out totalSupply and can issue more tokens as time goes on, you need to check if it doesn't wrap.\n    //Replace the if with this one instead.\n    //require(balances[msg.sender] >= _value && balances[_to] + _value > balances[_to]);\n    require(balances[msg.sender] >= _value);\n    balances[msg.sender] -= _value;\n    balances[_to] += _value;\n    Transfer(msg.sender, _to, _value);\n    return true;\n  }\n\n  /**\n   * @dev Basic ERC20 transferFrom\n   */\n  function transferFrom(address _from, address _to, uint256 _value) public returns (bool success) {\n    //same as above. Replace this line with the following if you want to protect against wrapping uints.\n    //require(balances[_from] >= _value && allowed[_from][msg.sender] >= _value && balances[_to] + _value > balances[_to]);\n    uint256 allowance = allowed[_from][msg.sender];\n    require(balances[_from] >= _value && allowance >= _value);\n    balances[_to] += _value;\n    balances[_from] -= _value;\n    if (allowance < MAX_UINT256) {\n      allowed[_from][msg.sender] -= _value;\n    }\n    Transfer(_from, _to, _value);\n    return true;\n  }\n\n  /**\n   * @dev Basic ERC20 balanceOf\n   */\n  function balanceOf(address _owner) view public returns (uint256) {\n    return balances[_owner];\n  }\n\n  /**\n   * @dev Basic ERC20 approve\n   */\n  function approve(address _spender, uint256 _value) public returns (bool success) {\n    allowed[msg.sender][_spender] = _value;\n    Approval(msg.sender, _spender, _value);\n    return true;\n  }\n\n  /**\n   * @dev Basic ERC20 allowance\n   */\n  function allowance(address _owner, address _spender) view public returns (uint256) {\n    return allowed[_owner][_spender];\n  }\n\n  /**\n   * @dev Applies item to a kitty and burns token\n   * @param _kittyId KittyId to apply item to\n   */\n  function applyItem(uint256 _kittyId) public {\n    require(balances[msg.sender] > 0);\n    require(msg.sender == _kittyCore.ownerOf(_kittyId));\n    require(appliedToKittyMapping[_kittyId] == false);  // can't re-apply\n    appliedToKittyMapping[_kittyId] = true;\n    balances[msg.sender] -= 1;\n    // emit events\n    Apply(_kittyId);\n  }\n\n  /**\n   * @dev Burns one token from ender and applies item to KittyId\n   * @param _receiveAddress address that will \"receive\" a token\n   * @param _kittyId KittyId to apply item to\n   */\n  function transferAndApply(address _receiveAddress, uint256 _kittyId) public {\n    // NOTE - there is no transfer of item that takes place.\n    // Only the `owner` and the `canApply` address can use this function.\n    require(msg.sender == canApply || msg.sender == owner);  // owner and canApply address can apply a sticker\n    require(balances[msg.sender] > 0);  // market contract or owner must own > 1 sticker\n    require(_receiveAddress == _kittyCore.ownerOf(_kittyId));  // make sure the _receiveAddress owns the _kittyId\n    require(appliedToKittyMapping[_kittyId] == false);  // can't re-apply\n    appliedToKittyMapping[_kittyId] = true;\n    balances[msg.sender] -= 1;\n    // emit events\n    Apply(_kittyId);\n  }\n\n  /**\n   * @dev Removes an item from KittyId\n   * @param _kittyId KittyId to remove item from\n   */\n  function removeItem(uint256 _kittyId) public {\n    require(msg.sender == _kittyCore.ownerOf(_kittyId));\n    appliedToKittyMapping[_kittyId] = false;\n    //emit events\n    Remove(_kittyId);\n  }\n\n  /**\n   * @dev Return whether or not the item is applied to KittyId\n   * @param _kittyId KittyId to check if item is applied to\n   */\n  function applied(uint256 _kittyId) view public returns (bool) {\n    return appliedToKittyMapping[_kittyId];\n  }\n}\n",
  "sourcePath": "/home/ubuntu/kitty-hats-truffle/contracts/KittyItemToken.sol",
  "compiler": {
    "name": "solc",
    "version": "0.4.18+commit.9cf6e910.Emscripten.clang"
  },
  "schemaVersion": "1.0.1",
  "updatedAt": "2018-04-23T16:03:21.118Z"
}