{
  "contractName": "KittyCoreExample",
  "abi": [
    {
      "constant": false,
      "inputs": [
        {
          "name": "_kittyId",
          "type": "uint256"
        },
        {
          "name": "_owner",
          "type": "address"
        }
      ],
      "name": "setOwnerOf",
      "outputs": [
        {
          "name": "success",
          "type": "bool"
        }
      ],
      "payable": false,
      "stateMutability": "nonpayable",
      "type": "function"
    },
    {
      "constant": true,
      "inputs": [
        {
          "name": "_kittyId",
          "type": "uint256"
        }
      ],
      "name": "ownerOf",
      "outputs": [
        {
          "name": "owner",
          "type": "address"
        }
      ],
      "payable": false,
      "stateMutability": "view",
      "type": "function"
    }
  ],
  "bytecode": "0x6060604052341561000f57600080fd5b6101d38061001e6000396000f30060606040526004361061004c576000357c0100000000000000000000000000000000000000000000000000000000900463ffffffff16806322e670b4146100515780636352211e146100ab575b600080fd5b341561005c57600080fd5b610091600480803590602001909190803573ffffffffffffffffffffffffffffffffffffffff1690602001909190505061010e565b604051808215151515815260200191505060405180910390f35b34156100b657600080fd5b6100cc600480803590602001909190505061016b565b604051808273ffffffffffffffffffffffffffffffffffffffff1673ffffffffffffffffffffffffffffffffffffffff16815260200191505060405180910390f35b60008160008085815260200190815260200160002060006101000a81548173ffffffffffffffffffffffffffffffffffffffff021916908373ffffffffffffffffffffffffffffffffffffffff1602179055506001905092915050565b600080600083815260200190815260200160002060009054906101000a900473ffffffffffffffffffffffffffffffffffffffff1690509190505600a165627a7a72305820b41655c6bcaaa81dffe8c67d4e96b7b1d98707bb7d05985187a9971fb35b65a30029",
  "source": "pragma solidity ^0.4.8;\n\ncontract KittyCoreExample {\n  mapping (uint256 => address) kittyOwners;\n\n  function setOwnerOf(uint256 _kittyId, address _owner) public returns (bool success) {\n    kittyOwners[_kittyId] = _owner;\n    return true;\n  }\n\n  function ownerOf(uint256 _kittyId) view public returns (address owner) {\n    return kittyOwners[_kittyId];\n  }\n}\n",
  "sourcePath": "/home/ubuntu/kitty-hats-truffle/contracts/KittyCoreExample.sol",
  "compiler": {
    "name": "solc",
    "version": "0.4.18+commit.9cf6e910.Emscripten.clang"
  },
  "schemaVersion": "1.0.1",
  "updatedAt": "2018-02-08T04:43:20.492Z"
}